{
  "contractName": "SimpleMath",
  "abi": [
    {
      "inputs": [
        {
          "internalType": "uint256",
          "name": "num",
          "type": "uint256"
        }
      ],
      "name": "plusTen",
      "outputs": [
        {
          "internalType": "uint256",
          "name": "",
          "type": "uint256"
        }
      ],
      "stateMutability": "pure",
      "type": "function",
      "constant": true
    }
  ],
  "bytecode": "0x6101cd610053600b82828239805160001a607314610046577f4e487b7100000000000000000000000000000000000000000000000000000000600052600060045260246000fd5b30600052607381538281f3fe73000000000000000000000000000000000000000030146080604052600436106100355760003560e01c8063e4eb78741461003a575b600080fd5b610054600480360381019061004f91906100bb565b61006a565b60405161006191906100f7565b60405180910390f35b6000600a826100799190610141565b9050919050565b600080fd5b6000819050919050565b61009881610085565b81146100a357600080fd5b50565b6000813590506100b58161008f565b92915050565b6000602082840312156100d1576100d0610080565b5b60006100df848285016100a6565b91505092915050565b6100f181610085565b82525050565b600060208201905061010c60008301846100e8565b92915050565b7f4e487b7100000000000000000000000000000000000000000000000000000000600052601160045260246000fd5b600061014c82610085565b915061015783610085565b9250827fffffffffffffffffffffffffffffffffffffffffffffffffffffffffffffffff0382111561018c5761018b610112565b5b82820190509291505056fea26469706673582212209f366f67974cca1a2514a0872c11e0225a9f652441a42ea7d82e4560759d55d964736f6c634300080c0033",
  "immutableReferences": {},
  "source": "// SPDX-License-Identifier: MIT\r\npragma solidity ^0.8.0;\r\n\r\nlibrary SimpleMath{\r\n    function plusTen(uint num) public pure returns(uint){\r\n        return num + 10;\r\n    }\r\n}",
  "sourcePath": "C:\\Users\\quoti\\Desktop\\LocalRepo\\__PROGRAMMING__\\CodeCloud\\ETH DEV\\github\\workspace\\truffle\\contracts\\SimpleMath.sol",
  "compiler": {
    "name": "solc",
    "version": "0.8.12+commit.f00d7308.Emscripten.clang"
  },
  "schemaVersion": "3.4.6",
  "updatedAt": "2022-05-02T03:04:07.075Z",
  "networkType": "ethereum",
  "devdoc": {
    "kind": "dev",
    "methods": {},
    "version": 1
  },
  "userdoc": {
    "kind": "user",
    "methods": {},
    "version": 1
  }
}