{
  "contractName": "Storage",
  "abi": [
    {
      "inputs": [],
      "name": "numData",
      "outputs": [
        {
          "internalType": "uint256",
          "name": "",
          "type": "uint256"
        }
      ],
      "stateMutability": "view",
      "type": "function",
      "constant": true
    },
    {
      "inputs": [
        {
          "internalType": "uint256",
          "name": "_numData",
          "type": "uint256"
        }
      ],
      "name": "setNumData",
      "outputs": [],
      "stateMutability": "nonpayable",
      "type": "function"
    },
    {
      "inputs": [],
      "name": "getNumData",
      "outputs": [
        {
          "internalType": "uint256",
          "name": "",
          "type": "uint256"
        }
      ],
      "stateMutability": "view",
      "type": "function",
      "constant": true
    },
    {
      "inputs": [],
      "name": "calculate",
      "outputs": [
        {
          "internalType": "uint256",
          "name": "",
          "type": "uint256"
        }
      ],
      "stateMutability": "view",
      "type": "function",
      "constant": true
    }
  ],
  "bytecode": "0x608060405234801561001057600080fd5b50610295806100206000396000f3fe608060405234801561001057600080fd5b506004361061004c5760003560e01c80632971763014610051578063610638a41461006f578063c5c7f7f61461008d578063ca77ab65146100a9575b600080fd5b6100596100c7565b604051610066919061017a565b60405180910390f35b6100776100d0565b604051610084919061017a565b60405180910390f35b6100a760048036038101906100a291906101c6565b6100d6565b005b6100b16100e0565b6040516100be919061017a565b60405180910390f35b60008054905090565b60005481565b8060008190555050565b600073__SimpleMath____________________________63e4eb78746000546040518263ffffffff1660e01b815260040161011b9190610202565b602060405180830381865af4158015610138573d6000803e3d6000fd5b505050506040513d601f19601f8201168201806040525081019061015c9190610232565b905090565b6000819050919050565b61017481610161565b82525050565b600060208201905061018f600083018461016b565b92915050565b600080fd5b6101a381610161565b81146101ae57600080fd5b50565b6000813590506101c08161019a565b92915050565b6000602082840312156101dc576101db610195565b5b60006101ea848285016101b1565b91505092915050565b6101fc81610161565b82525050565b600060208201905061021760008301846101f3565b92915050565b60008151905061022c8161019a565b92915050565b60006020828403121561024857610247610195565b5b60006102568482850161021d565b9150509291505056fea26469706673582212206518cc79fdcfaed8915c2e465a880c7c5a8239608a7a5004e0a70471f416997564736f6c634300080c0033",
  "immutableReferences": {},
  "source": "// SPDX-License-Identifier: MIT\r\npragma solidity ^0.8.0;\r\n\r\n// import \"./lib/SimpleMath.sol\";\r\nimport \"./SimpleMath.sol\";\r\n\r\ncontract Storage {\r\n    uint public numData;\r\n\r\n    function setNumData(uint _numData) public {\r\n        numData = _numData;\r\n    }\r\n\r\n    function getNumData() public view returns(uint){\r\n        return numData;\r\n    }\r\n\r\n    function calculate() public view returns(uint){\r\n        return SimpleMath.plusTen(numData);\r\n    }\r\n    \r\n}",
  "sourcePath": "C:\\Users\\quoti\\Desktop\\LocalRepo\\__PROGRAMMING__\\CodeCloud\\ETH DEV\\github\\workspace\\truffle\\contracts\\Storage.sol",
  "compiler": {
    "name": "solc",
    "version": "0.8.12+commit.f00d7308.Emscripten.clang"
  },
  "schemaVersion": "3.4.6",
  "updatedAt": "2022-05-02T03:04:07.081Z",
  "networkType": "ethereum",
  "devdoc": {
    "kind": "dev",
    "methods": {},
    "version": 1
  },
  "userdoc": {
    "kind": "user",
    "methods": {},
    "version": 1
  }
}